:100000000C946A000C9492000C9492000C94920050
:100010000C9492000C9492000C9492000C94920018
:100020000C9492000C9492000C9492000C94920008
:100030000C9492000C9492000C9492000C949200F8
:100040000C945B120C9492000C94CB120C94A5129D
:100050000C9492000C9492000C9492000C949200D8
:100060000C94FD120C94920054494D45005745459F
:100070004B00484F4D450000000000240027002A97
:100080000000000000250028002B000000000023D5
:1000900000260029000404040404040404020202EB
:1000A00002020203030303030301020408102040B9
:1000B0008001020408102001020408102000000042
:1000C0000800020100000304070000000000000017
:1000D00000001C1411241FBECFEFD8E0DEBFCDBF3F
:1000E00012E0A0E0B1E0E8E4F7E302C005900D9271
:1000F000A834B107D9F724E0A8E4B2E001C01D920A
:10010000A930B207E1F710E0CAE6D0E004C02197B9
:10011000FE010E94341BC936D107C9F70E94A21400
:100120000C94A21B0C940000880F991FFC01E15253
:10013000FC4F0190F081E02D309709F0099408956B
:10014000FC0181E080836183128261506383848338
:1001500082E0858316A2148E138E13A2168E158E3E
:1001600014A210A2178E15A210861782128611866D
:100170001486138616861586108A1786128A118AA7
:10018000148A138A168A158A508F478B9EE391A38F
:10019000328F218F99E092A386830895833081F076
:1001A00028F4813099F08230A9F008958730A9F0C1
:1001B0008830C9F08430B1F4809180008F7D03C015
:1001C000809180008F7780938000089584B58F7729
:1001D00084BD089584B58F7DFBCF8091B0008F776B
:1001E0008093B00008958091B0008F7DF9CFCF93B8
:1001F000DF93282F30E0F901E354FF4F8491F90198
:10020000E755FF4FD491F901EB56FF4FC491CC2332
:10021000A1F081110E94CE00EC2FF0E0EE0FFF1F45
:10022000E557FF4FA591B491EC91ED2381E090E06B
:1002300009F480E0DF91CF91089580E090E0FACF5B
:100240001F93CF93DF93282F30E0F901E354FF4F42
:100250008491F901E755FF4FD491F901EB56FF4F17
:10026000C491CC23A9F0162F81110E94CE00EC2F4F
:10027000F0E0EE0FFF1FEF57FF4FA591B4918FB73E
:10028000F894EC91111108C0D095DE23DC938FBF58
:10029000DF91CF911F910895DE2BF8CFCF93DF939D
:1002A00090E0FC01E755FF4F24918B569F4FFC01D6
:1002B00084918823C9F090E0880F991FFC01E958C8
:1002C000FF4FA591B491FC01EF57FF4FC591D49119
:1002D00061110DC09FB7F8948C91209582238C9367
:1002E0008881282328839FBFDF91CF9108956230B2
:1002F00051F49FB7F8943C91822F809583238C937F
:10030000E8812E2BEFCF8FB7F894EC912E2B2C9306
:100310008FBFEACF3FB7F8948091160390911703EF
:10032000A0911803B091190326B5A89B05C02F3FD3
:1003300019F00196A11DB11D3FBFBA2FA92F982F0B
:100340008827BC01CD01620F711D811D911D42E006
:10035000660F771F881F991F4A95D1F708958F92CE
:100360009F92AF92BF92CF92DF92EF92FF924B019A
:100370005C010E948A016B017C010E948A016C1958
:100380007D098E099F09683E734081059105A8F398
:1003900021E0821A9108A108B10888EEC80E83E016
:1003A000D81EE11CF11C81149104A104B10429F7A9
:1003B000FF90EF90DF90CF90BF90AF909F908F9085
:1003C000089508950895DC01ED91FC910190F0816C
:1003D000E02D0994AF92BF92CF92DF92EF92FF92FD
:1003E0000F931F93CF93DF936C017B018B01040F5D
:1003F000151FEB015E01AE18BF08C017D10759F0F9
:100400006991D601ED91FC910190F081E02DC6013A
:100410000995892B79F7C501DF91CF911F910F9134
:10042000FF90EF90DF90CF90BF90AF900895FC01C8
:10043000538D448D252F30E0842F90E0821B930B49
:10044000541710F0CF96089501970895FC01918DEF
:10045000828D981761F0A28DAE0FBF2FB11D5D96F2
:100460008C91928D9F5F9F73928F90E008958FEF94
:100470009FEF0895FC01918D828D981731F0828D48
:10048000E80FF11D858D90E008958FEF9FEF08959F
:10049000FC01918D228D892F90E0805C9F4F821B03
:1004A00091098F739927089580E293E00E94480292
:1004B00021E0892B09F420E0822F089580E090E06C
:1004C000892B29F00E94540281110C940000089598
:1004D000FC01A48DA80FB92FB11DA35ABF4F2C91B9
:1004E000848D90E001968F739927848FA689B789B0
:1004F0002C93A089B1898C91837080648C93938DA7
:10050000848D981306C00288F389E02D80818F7D49
:1005100080830895EF92FF920F931F93CF93DF9301
:10052000EC0181E0888F9B8D8C8D98131AC0E8892F
:10053000F989808185FF15C09FB7F894EE89FF89FE
:100540006083E889F98980818370806480839FBF9C
:1005500081E090E0DF91CF911F910F91FF90EF909C
:100560000895F62E0B8D10E00F5F1F4F0F731127AC
:10057000E02E8C8D8E110CC00FB607FCFACFE889E7
:10058000F989808185FFF5CFCE010E946802F1CF05
:10059000EB8DEC0FFD2FF11DE35AFF4FF0829FB75B
:1005A000F8940B8FEA89FB8980818062CFCFCF934B
:1005B000DF93EC01888D8823B9F0AA89BB89E8898B
:1005C000F9898C9185FD03C0808186FD0DC00FB631
:1005D00007FCF7CF8C9185FFF2CF808185FFEDCFAF
:1005E000CE010E946802E9CFDF91CF91089520915A
:1005F000B702260F3327331F21323105ECF4209147
:10060000DB02FC0190E080E0243069F082E0089594
:10061000A091B7022191AC0149565D4FA40FB52FAF
:10062000B11D2C930196861798F38091B702680F3D
:100630006093B70280E0089581E008951092DB0294
:1006400081E08093DD021092DC0261E082E10E9491
:10065000200161E083E10E942001E9EBF0E080816C
:100660008E7F808380818D7F808388E48093B80033
:1006700085E48093BC000895CF93DF9391E090933D
:1006800096028823B9F0C091B800D091BA00809149
:10069000BC008A7B8093BC0060E082E10E94200164
:1006A00060E083E10E9420010E941E03D093BA0003
:1006B000C093B800DF91CF9108950895E0910803A9
:1006C00080910703E81730F4F0E0EF58FD4F808188
:1006D00090E008958FEF9FEF089590910803809127
:1006E00007032FEF3FEF981748F4E92FF0E0EF589A
:1006F000FD4F208130E09F5F90930803C90108956A
:100700008091070390910803891B990B0895CF925C
:10071000DF92EF92FF920F931F93CF93DF937C01B1
:10072000CB018A0120917002222389F0EB016B0139
:10073000C40ED51ECC15DD0569F06991D701ED9188
:10074000FC910190F081E02DC7010995F3CF642F52
:100750000E94F702C801DF91CF911F910F91FF9086
:10076000EF90DF90CF900895CF93DF931F92CDB796
:10077000DEB76983209170022223F9F020910503EE
:10078000203258F021E030E0FC013383228390E0F6
:1007900080E00F90DF91CF91089580910603E82FBC
:1007A000F0E0E05BFD4F998190838F5F80930603BB
:1007B0008093050381E090E0ECCF61E0CE010196EB
:1007C0000E94F702F7CFCF92DF92EF92FF920F9342
:1007D0001F93CF93FC018785811109C080E0CF91E1
:1007E0001F910F91FF90EF90DF90CF9008959FB7EA
:1007F000F89440911A0350911B0360911C0370916F
:100800001D039FBF448355836683778300811181D5
:10081000228133816A017B01C01AD10AE20AF30AFC
:100820000085118522853385C016D106E206F306C0
:10083000A8F24083518362837383C685CC2379F207
:100840000484F585E02D09958C2FC9CFCF93C82F4F
:1008500080911D01882351F0C0931F0310921D0148
:10086000C0931E0380911F03CF9108958091F703D9
:100870009091F80320911E03C21799F02FB7F894B6
:1008800040911A0350911B0360911C0370911D034A
:100890002FBFFC01408351836283738321E027874C
:1008A000DFCF0E94E3038823D9F2C0931F03E091B6
:1008B000F703F091F8031786D3CFCF92DF92EF9230
:1008C000FF920F931F93CF93DF93FC01C48121E02C
:1008D00020937002C0934F021092060310920503FA
:1008E0008385682B8DEB93E00E94B403D0910503C0
:1008F000D13208F092C00E948A016B017C01809184
:10090000DB02811165C082E08093DB0281E080938D
:10091000DD028FEF8093DA021092FF02D093FE0285
:10092000A0E5B2E0EEEDF2E080E0D81385C01092D1
:10093000000380910003CC0FC82BC093000380916B
:10094000DC02813009F07CC01092DC020E948A0136
:100950006B017C01809100038093BB008091920227
:1009600090919302A0919402B0919502892B8A2BC9
:100970008B2B99F00E948A010091920210919302B0
:1009800020919402309195026C197D098E099F097E
:100990000617170728073907E0F18091BC0083FD8F
:1009A000D9CF85EC8093BC000E948A016B017C0149
:1009B0008091DB02823009F445C08091DA028F3FDA
:1009C00061F18091DA02803241F18091DA0225C032
:1009D0008091920290919302A0919402B09195021D
:1009E000892B8A2B8B2B09F48ACF0E948A010091D4
:1009F00092021091930220919402309195026C1909
:100A00007D098E099F09061717072807390708F07F
:100A100076CF809191020E943C03109206031092BF
:100A2000050310927002DF91CF911F910F91FF90FB
:100A3000EF90DF90CF9008959D9191938F5F75CF48
:100A400085EEB0CF8091920290919302A091940292
:100A5000B0919502892B8A2B8B2B09F4A9CF0E9488
:100A60008A01009192021091930220919402309198
:100A700095026C197D098E099F090617170728072B
:100A8000390708F095CFC5CF089590E080E008952C
:100A9000FC01808D8C3080F4A82FB0E0AA0FBB1F22
:100AA000AE0FBF1F6D937C938F5F808F918D9F5F83
:100AB000918F828F81E0089580E0089581E008950C
:100AC00020914C0230E040910001E9E0F3E090E039
:100AD00080E050E2B901082E02C0759567950A942E
:100AE000E2F760FD07C0508301963196883091058A
:100AF00089F708954083F8CF0895DC011296ED91AF
:100B0000FC910280F381E02D309781F00280F38127
:100B1000E02D309759F082819381009739F0DC0104
:100B2000ED91FC910480F581E02D0994089561E038
:100B300070E080911303909114030C947D0570E094
:100B400060E080911303909114030C947D0500974D
:100B500011F481E090E00C94A8170F931F93CF93AA
:100B60008C01C62F0E945D046C2F6460C8010E9436
:100B70005D046C2F6B7FC8010E945D0483EC90E0E4
:100B80000197F1F7CF911F910F9108950F931F9344
:100B9000CF93DF938C01D62FC42F607F642B0E94EC
:100BA000AD0580E1D89FB00111246C2BC801DF9105
:100BB000CF911F910F910C94AD0541E00E94C605A5
:100BC00081E090E00895EF92FF920F931F93CF93EF
:100BD000DF938C017A01677088E0689FB00111246F
:100BE000606440E0C8010E94C605E701A8E0EA0E83
:100BF000F11C6991D801ED91FC910190F081E02DFB
:100C0000C8010995CE15DF05A1F7DF91CF911F919E
:100C10000F91FF90EF9008950F931F93CF93DF9361
:100C2000CDB7DEB728970FB6F894DEBF0FBECDBFA5
:100C30008C0188E0FB01DE01119601900D928A95EE
:100C4000E1F7AE014F5F5F4FF801628180819181D2
:100C50000E94E305F801828128960FB6F894DEBF62
:100C60000FBECDBFDF91CF911F910F910895CF930C
:100C7000DF93CDB7DEB728970FB6F894DEBF0FBE6F
:100C8000CDBF28E0E4E2F1E0DE01119601900D9283
:100C90002A95E1F7FC012185241710F44FEF420F4C
:100CA00050E0440F551F21E030E02C0F3D1F420F54
:100CB000531FFA012081620F606840E028960FB64A
:100CC000F894DEBF0FBECDBFDF91CF910C94C60567
:100CD00040E061E00E94C6058BE39FE10197F1F7D8
:100CE0000895FB0101900020E9F73197AF01461B01
:100CF000570BDC01ED91FC910280F381E02D09940A
:100D00008F929F92AF92BF92EF92FF920F931F9399
:100D1000CF93DF93CDB7DEB7A1970FB6F894DEBFC0
:100D20000FBECDBF7C01FA01CB0119A2223008F41D
:100D30002AE08E010F5D1F4F822E912CB12CA12C29
:100D4000BF01A50194010E94121BF901CA016A307A
:100D50000CF5605DD8016E938D01232B242B252B80
:100D600079F790E080E0109721F0BD01C7010E9463
:100D70007106A1960FB6F894DEBF0FBECDBFDF910E
:100D8000CF911F910F91FF90EF90BF90AF909F90E8
:100D90008F900895695CDECFCF92DF92EF92FF9241
:100DA0000F931F93CF93DF9377FF1DC06A017B01E1
:100DB000EC016DE20E94E3018C0144275527BA0142
:100DC0004C195D096E097F092AE0CE010E94800658
:100DD000800F911FDF91CF911F910F91FF90EF90A6
:100DE000DF90CF9008952AE0DF91CF911F910F916E
:100DF000FF90EF90DF90CF900C948006AB01770FBF
:100E0000660B770B0C94CC06CF93DF93BC0180E28A
:100E100093E00E947106EC016CE871E080E293E0DF
:100E20000E9471068C0F9D1FDF91CF9108954F9204
:100E30005F926F927F928F929F92AF92BF92EF924A
:100E4000FF920F931F93CF93DF938C014A015B01B5
:100E5000E22EAB019401CB01B4010E940D1B6FE89F
:100E600071E0811126C024013501E89477F82FEF55
:100E70003FEF4FE75FE7C301B2010E940D1B8111F5
:100E80000CC02FEF3FEF4FE75FE7C301B2010E94B5
:100E9000431963E971E0181664F02FEF3FEF4FE755
:100EA0005FE4C501B4010E949B1A18169CF467E91F
:100EB00071E0C801DF91CF911F910F91FF90EF90EA
:100EC000BF90AF909F908F907F906F905F904F906A
:100ED0000C9471062FEF3FEF4FE75FECC501B401B3
:100EE0000E94431987FDE3CF20E030E0A901C5014E
:100EF000B4010E944319D0E0C0E087FF09C06DE251
:100F0000C8010E94E301EC01B7FAB094B7F8B094BD
:100F1000FE2C712C60E070E080E09FE37E1440F4D2
:100F200020E030E040E251E40E9448197394F6CF8B
:100F3000A50194010E94D7184B015C010E94BA19C7
:100F40002B013C012AE0BC01A201C8010E948006DD
:100F5000C80FD91FEE20D1F1C301B2010E94E919D7
:100F60009B01AC01C501B4010E94D6184B015C0184
:100F70006EE2C8010E94E301C80FD91FFA948FEFF7
:100F8000F81621F120E030E040E251E4C501B4015F
:100F90000E94A01A2B013C010E94BA194B01B12CEE
:100FA000A12C2AE0B501A401C8010E948006C80F47
:100FB000D91FC501B4010E94E9199B01AC01C3010D
:100FC000B2010E94D6184B015C01D8CFCE01DF914F
:100FD000CF911F910F91FF90EF90BF90AF909F9096
:100FE0008F907F906F905F904F900895611571057D
:100FF00011F00C94710690E080E00895CF93DF9398
:101000001F92CDB7DEB76BE971E080E293E00E94FA
:10101000F6078091050490910604BE016F5F7F4F33
:10102000681B790B80E293E00E94FE0689EA91E05A
:101030000E9404070F90DF91CF91089562E070E065
:1010400080911303909114030E947D050C94FE0778
:1010500063E070E080911303909114030E947D057A
:101060000C94FE0785ED8093BC00809192029091D4
:101070009302A0919402B09195020796A11DB11D13
:1010800023E0B695A795979587952A95D1F7209156
:10109000BC0024FD03C01092DB020895409192022F
:1010A000509193026091940270919502452B462BCA
:1010B000472B69F30097A105B10541F02AE22A9573
:1010C000F1F700C00197A109B109E1CF8091910228
:1010D0000C943C032F923F924F925F926F927F92BB
:1010E0008F929F92AF92BF92CF92DF92EF92FF9238
:1010F0000F931F93CF93DF93CDB7DEB72A970FB629
:10110000F894DEBF0FBECDBF8C012DB63EB6DC011C
:101110008D919C910E94680680911A018823D1F0DC
:1011200010921A0142E151E06FE0F8018081918153
:101130000E94E3054AE051E06EE0D8018D919C9158
:101140000E94E30542E051E06DE0F8018081918169
:101150000E94E305D8015F96EC915F97F0E031962D
:10116000EE0FFF1FE00FF11F808091800D911C9109
:10117000F401B28C808DBB2011F08B1508F4B82ED1
:10118000D4015996AC902B2D30E0AB1408F471C00B
:10119000A394AB18A9014A0D511D8417150614F428
:1011A000A82EAB185A2CF901EA0DF11DFA87E98730
:1011B000252D2A19852D90E049855A858417950794
:1011C0000CF0CEC1D40159964C90880F991FF401B0
:1011D000E80FF91FC080D180F401808DB81610F49B
:1011E000D6012C93F60140816181C8010E94370627
:1011F00096012F5D3F4F3C832B837601A601465F0E
:101200005F4F5E834D83AB81BC818D91BC83AB838B
:10121000813409F401C108F05EC0803209F4CEC007
:10122000C0F5893009F4BCC030F5813009F4DFC065
:10123000883009F4A9C0B2E0EB0EF11CED81FE810B
:10124000EE15FF0501F7541077C1D60114968C9165
:10125000823009F461C1833009F470C1813009F032
:101260007BC1D801ED91FC910190F081E02D6FE000
:1012700061C1A12C97CF803109F499C08131D9F691
:10128000D7015796ED91FC914081518170E060E06B
:10129000A9C08C3309F46FC0A0F4813209F49AC05C
:1012A000823349F6F601258130E0D7015796ED915A
:1012B000FC914081518162817381C8010E941707AE
:1012C000BACF8F3308F0B7CFF7016789708DC801A7
:1012D0000E94F607B0CF893D09F4FCC020F5803D9F
:1012E00009F4E2C080F4863409F488C0893C09F02E
:1012F000A2CFD7015796ED91FC91309709F49BCF7F
:101300000995682F79C0813D09F4DAC0883D09F05C
:1013100092CFD7015796ED91FC91309709F48BCF7E
:101320000995BC0139C0803F09F4E9C088F4883EC2
:1013300009F4DAC0893E09F07ECFD7015796ED91C6
:10134000FC91309709F477CF0995AB01BC014AC0F5
:101350008B3F09F49FC08C3F09F49CC08A3F09F081
:101360006ACFD7015796ED91FC91309709F463CF7E
:101370000995682F05C0D7015796ED91FC916081C2
:10138000C8010E94E30157CFD7015796ED91FC9118
:101390006081062E000C770BC8010E94FE064BCF21
:1013A000D7015796ED91FC91408150E06FCFD70166
:1013B0005796ED91FC9160817181EECFD7015796E0
:1013C000ED91FC914081518162817381C8010E943D
:1013D000CC0631CFD7015796ED91FC9140815181D8
:1013E000628173812AE0C8010E94800624CFD70160
:1013F0005796ED91FC91608170E0CECFF701A789FF
:10140000B08DF80180819181FC01208131816C9146
:10141000C801F90109950FCF2DB73EB738872F8343
:10142000D70157966D907C90C3010E94CD189A8386
:10143000898389819A81EDB7FEB7E81BF90B0FB656
:10144000F894FEBF0FBEEDBF6DB77EB76F5F7F4FE5
:1014500020E0822F90E049815A818417950754F447
:10146000F301E80FF91FE491860F971FDC01EC935D
:101470002F5FEFCFE981FA81E60FF71F1082C801D5
:101480000E94F607EF81F8850FB6F894FEBF0FBEF5
:10149000EDBFD1CED7015796ED91FC91309709F46D
:1014A000CACE0995BC0113CFD7015796ED91FC9197
:1014B000309709F4C0CE0995682F880F770B6CCF51
:1014C000D7015796ED91FC91309709F4B4CE099568
:1014D000482F6BCFD7015796ED91FC91309709F4C7
:1014E000AACE0995AC01D2CED7015796ED91FC91C9
:1014F000309709F4A0CE0995AB01BC0167CFD701A5
:101500005796ED91FC91309709F495CE0995AB0172
:10151000BC0122E030E0D1CEF60161816150408112
:10152000C8010E943706D801ED91FC910190F0812D
:10153000E02D6EE0C801099553943ACEF601428140
:101540006381C8010E943706D801ED91FC9101909A
:10155000F081E02D6DE0EECF21E0F601248381CE15
:101560000FB6F8943EBE0FBE2DBE2A960FB6F89465
:10157000DEBF0FBECDBFDF91CF911F910F91FF90C6
:10158000EF90DF90CF90BF90AF909F908F907F9023
:101590006F905F904F903F902F9008952F923F92C1
:1015A0004F925F926F927F928F929F92AF92BF9273
:1015B000CF92DF92EF92FF920F931F93CF93DF931F
:1015C00000D000D0CDB7DEB78C01DC011296ED91D2
:1015D000FC9120813181D9011296245F3F4FBD01DA
:1015E000FB0181919191BF01FC014381411199C19E
:1015F00041E0438390934B0280934A02ED91FD9129
:101600004381411195C121E02383F0934902E09386
:101610004802009709F493C164E371E00E940C064C
:10162000809300018091480290914902009709F44B
:1016300088C16CE271E00E940C06898389818093E5
:10164000010110924E0210924D020E946005A98184
:10165000A093090380E290E00E94A817FC01D80142
:1016600012968D919C91DC0114968D919C919183A1
:101670008083168E178ED8011596FC93EE931497DF
:101680008CE190E00E94A817FC01108E118E138E41
:10169000D80117969C938E93169787E290E00E944C
:1016A000A8179C838B83FC01108211828FEF8283A9
:1016B000838381E0848392E0958316A2128E118E3B
:1016C00012A2148E138E13A2168E158E14A210A2BF
:1016D000178E15A21086178212861186148613861D
:1016E00016861586108A1786128A118A148A138A1A
:1016F000168A158A20EB31E0308F278B9EE391A369
:10170000868387E290E00E94A8174C0129E033E02D
:1017100045EB51E060E00E94A00087E290E00E946B
:10172000A8175C012AE033E047EB51E062E00E9439
:10173000A00087E290E00E94A8176C012BE033E044
:1017400049EB51E064E00E94A00087E290E00E9433
:10175000A8177C012CE033E047EB51E066E00E94E3
:10176000A00087E290E00E94A8173C012DE033E042
:101770004BEB51E068E00E94A00087E290E00E94FD
:10178000A8172C012EE033E04DEB51E06AE00E94F7
:10179000A00087E290E00E94A8171C012FE033E030
:1017A0004DEB51E06CE00E94A00087E290E00E94C7
:1017B000A8179A83898320E133E04FEB51E06EE074
:1017C0000E94A000D40192968C919297893019F4CE
:1017D00086E492968C93F50182A1893011F486E417
:1017E00082A3D60192968C919297893019F486E45F
:1017F00092968C93F70182A1893011F486E482A33A
:10180000D30192968C919297893019F486E492963E
:101810008C93F20182A1893011F486E482A3D10174
:1018200092968C919297893019F486E492968C93D3
:10183000E981FA8182A1893011F486E482A36B8167
:101840007C81D80116968D919C910E944805B40127
:10185000F801868197810E944805B501D801169646
:101860008D919C910E944805B601F801868197816F
:101870000E944805B701D80116968D919C910E944F
:101880004805B301F801868197810E944805B2019D
:10189000D80116968D919C910E944805B101F801DE
:1018A000868197810E94480569817A81D8011696C0
:1018B0008D919C910E944805F801A481B5815E96A6
:1018C0009C915E979E3090F4E92FF0E03196EE0FF8
:1018D000FF1FAF014A0F5B1FF80126813781FA0114
:1018E000318320839F5F5E969C935E97CD010E941B
:1018F0006A0881E00F900F900F900F90DF91CF91C9
:101900001F910F91FF90EF90DF90CF90BF90AF901D
:101910009F908F907F906F905F904F903F902F900F
:1019200008952617370709F05BCE90E080E062CE7D
:101930002A173B0709F062CEF0E0E0E066CE80E2D5
:101940006FCEF0E2F9837ACEAF92BF92CF92DF9260
:10195000EF92FF920F931F93CF93DF93EC018C854F
:101960009D85892B81F081EC91E00E94040780E045
:10197000DF91CF911F910F91FF90EF90DF90CF906B
:10198000BF90AF900895EA80FB80D7011296ED9149
:10199000FC91028113811D870C870115110519F433
:1019A00085ED91E0E2CF80E290E00E94A817FC0173
:1019B000D70114968D919C9191838083168E178EFA
:1019C000FD83EC838CE190E00E94A817FC01108E4F
:1019D000118E138E9F838E83F80186818F8710E08E
:1019E00001E062E0B62E71E4A72EECE7EE2EE5E012
:1019F000FE2E8F85181708F052C0AC85BD85812F4B
:101A000090E0880F991F1496ED91FC91E80FF91F53
:101A1000C080D180C114D10409F43FC084EE91E0AC
:101A20000E94040787E290E00E94A817FC01D601FB
:101A300012968D919C91DC012D913C91812F8170AA
:101A4000808301838150828313820483B582128E46
:101A5000118E12A2148E138E13A2168E158E14A23E
:101A600010A2178E15A2128611861486138616866A
:101A70001586108A1786128A118A148A138A168A82
:101A8000158A308F278B0683A1A2F086E78206A3F2
:101A9000BF018E819F810E9448051F5FAACF2E81C2
:101AA0003F8182E0F901828F408DD90180E092E090
:101AB000481739F0ED91FD919483138212828F5F64
:101AC000F7CFAC81BD815E968C915E978E3068F4C5
:101AD000E82FF0E03196EE0FFF1FEA0FFB1F318376
:101AE00020838F5F5E968C935E978E855F96EC91D8
:101AF0005F97F0E03196EE0FFF1FEA0FFB1FC081EA
:101B0000D181988D891760F4E82FF0E0EE0FFF1F68
:101B1000EC0FFD1F0190F081E02D96A19111898FAE
:101B2000CD010E946A0881E023CFAF92BF92CF928D
:101B3000DF92EF92FF920F931F93CF93DF935C019D
:101B4000E12CF501868DE81648F5CE2DD0E0CC0FBE
:101B5000DD1FCA0DDB1DCA80DB80C114D104E1F09A
:101B6000F12CF601808DF81690F40F2D10E0000F87
:101B7000111F0C0D1D1DF80180819181009729F026
:101B80000E944418F80111821082F394EACFC60132
:101B90000E9444181B821A82E394D3CFDF91CF9125
:101BA0001F910F91FF90EF90DF90CF90BF90AF907B
:101BB00008950F931F93CF93DF93EC01E0914A02B6
:101BC000F0914B02309709F01382E0914802F091B6
:101BD0004902309709F013820C811D81011511050E
:101BE00051F0C8010E94950DC8010E9444181D8241
:101BF0001C821F821E821B861A8681E0DF91CF9194
:101C00001F910F91089520E531E0FC01318320837D
:101C10000C94D90DCF93DF93EC010E94030ECE01FB
:101C2000DF91CF910C9444180F931F93CF93DF93C0
:101C3000EC010C811D810115110551F0C8010E94B4
:101C4000950DC8010E9444181D821C821F821E82AD
:101C50001D861C861E861F8681E0DF91CF911F9115
:101C60000F91089520E431E0FC01318320830C942E
:101C7000140ECF93DF93EC010E94320ECE01DF9160
:101C8000CF910C944418AF92BF92CF92DF92EF9213
:101C9000FF920F931F93CF93DF935C016B01DC01E5
:101CA0001696ED90FC90D0E0C0E0CE15DF05ACF4C8
:101CB000D5011496ED91FC91CE01880F991FE80F84
:101CC000F91F00811181B601F801808191810E9484
:101CD000731B892B21F02196E8CF10E000E0C801AA
:101CE000DF91CF911F910F91FF90EF90DF90CF90F8
:101CF000BF90AF9008955F926F927F928F929F9264
:101D0000AF92BF92CF92DF92EF92FF920F931F9309
:101D1000CF93DF933C01EB01FB0101900020E9F739
:101D2000CF010197861B970B8230910508F45FC0A5
:101D30008C0101501109FB01E00FF11F20812F32AE
:101D400009F055C00E94A7057C01A801BE010E94B0
:101D5000931BF701E00FF11F1082E7015524539404
:101D6000F301A080B1808E010F5F1F4FF8018081C9
:101D7000882309F44EC06FE270E0C8010E94681B1E
:101D80004C017C01892B31F4F80101900020E9F726
:101D900031977F01E01AF10AC70101960E94A70559
:101DA0006C01A701B8010E94931BF601EE0DFF1D07
:101DB0001082B601C5010E94430E5C01892BC9F453
:101DC000C114D10419F0C6010E944418C501DF9165
:101DD000CF911F910F91FF90EF90DF90CF90BF9028
:101DE000AF909F908F907F906F905F900895512C4F
:101DF000B7CF0E0D1F1D8114910419F084010F5FE0
:101E00001F4FC114D10409F4B1CFC6010E94441878
:101E1000ADCF40E250E0BE01C30104960E94931B87
:101E2000209729F0552019F0CE010E944418F301A3
:101E3000B382A282CBCF0F931F93CF93DF93CDB703
:101E4000DEB7A0970FB6F894DEBF0FBECDBF8C01F2
:101E5000BC016C5F7F4F40E250E0CE0101960E94D2
:101E6000931B9E012F5F3F4FBE016E5D7F4FD901D7
:101E7000F0E0E0E04A2F9B2F8D91882341F0A617D8
:101E8000B70729F08F32B1F7E42FF92FF3CF30974E
:101E900009F0108290E080E0F90141919F01442314
:101EA00029F08032910521F00196F6CF009759F084
:101EB0000197E1E0F0E0EC0FFD1FE80FF91F8081D2
:101EC0008F3209F410826DEE71E080E293E00E949F
:101ED000F607CE0101960E940407BE016F5F7F4F97
:101EE000C8010E947B0EA0960FB6F894DEBF0FBE0D
:101EF000CDBFDF91CF911F910F910895CF93DF93C5
:101F0000EC0162307105C9F060F46115710509F4E6
:101F100086C06130710509F45EC080E0DF91CF9129
:101F2000089563307105D9F164307105B1F7E88126
:101F3000F9810284F385E02D4CC020914E022830B7
:101F400080F430914C02832F90E0022E02C09595D0
:101F500087950A94E2F780FF17C0273051F410925A
:101F60004C020E9460058C819D810E946A0881E07C
:101F7000D5CF81E090E001C0880F2A95EAF78095DF
:101F8000832380934C02EDCF8FEF2730D1F381E094
:101F900090E001C0880F2A95EAF7832BF2CFE88101
:101FA000F9810084F185E02D0995EA81FB81828128
:101FB00093810E941B0F0097D1F2DC011296ED91E4
:101FC000FC9182819381DC01ED91FC910680F78187
:101FD000E02D0995CCCF80914E0280934D02EFEF1A
:101FE000811125C0E7E0E0934E02F0E0E75FFC4F8F
:101FF000909101019083E82FF0E0E75FFC4F88307B
:1020000058F420914C0230E002C0359527958A950E
:10201000E2F78091000120FF80E28083A4CF8091CD
:102020004E0280934D02E0E08730E8F6E1E0E80FF1
:10203000DACF2F923F924F925F926F927F928F9260
:102040009F92AF92BF92CF92DF92EF92FF920F9347
:102050001F93CF93DF9300D01F92CDB7DEB79B8342
:102060008A837B01242E5983FB0101900020E9F72C
:10207000CF010197861B970B8230910508F494C01D
:102080008C0101501109FB01E00FF11F20812F325B
:1020900009F08AC00E94A7056C01A801B7010E943F
:1020A000931BF601E00FF11F108276013324339465
:1020B000EA81FB81A080B18087010F5F1F4FF8018B
:1020C0008081882309F49BC06FE270E0C8010E9400
:1020D000681B4C013C01892B31F4F8010190002070
:1020E000E9F731973F01601A710AC30101960E9416
:1020F000A7056C01A301B8010E94931BF601E60D30
:10210000F71D1082B601C5010E94430E9B838A838E
:10211000892B09F063C088E090E00E94A8179B8398
:102120008A83522C49808114910411F0512C412C46
:10213000F60101900020E9F7CF018C199D090E945A
:10214000A705EA81FB8191838083B6010E947C1BF5
:10215000EA81FB81528243821582148217821682A1
:10216000F5018681978101968115F0E49F07F0F4CF
:10217000880F991F0E94A7052C01F5014681578100
:10218000DC018481958130E020E0241735078CF450
:10219000F901EE0FFF1FE80FF91F608171816D9348
:1021A0007D932F5F3F4FF1CF312C82CF8FEF9FEF89
:1021B000E1CF440F551FF201E40FF51F2A813B8147
:1021C00031832083009711F00E944418F501558255
:1021D000448286819781019697838683060D171D19
:1021E0008114910419F084010F5F1F4FC114D104B1
:1021F00019F0C6010E944418AA80BB8060CFE11488
:10220000F104D1F03320C1F0C7010F900F900F906F
:10221000DF91CF911F910F91FF90EF90DF90CF90C2
:10222000BF90AF909F908F907F906F905F904F90F6
:102230003F902F900C9444180F900F900F90DF91C7
:10224000CF911F910F91FF90EF90DF90CF90BF90B3
:10225000AF909F908F907F906F905F904F903F9046
:102260002F900895EF92FF920F931F93CF93DF93D8
:10227000CDB7DEB7A0970FB6F894DEBF0FBECDBFC7
:102280008C016130710509F490C008F4CAC0623055
:10229000710531F06330710509F477C080E02AC020
:1022A000DC011E968C911E97082E000C990B1F9630
:1022B0002C911F97F12CE12C2817190679F074F056
:1022C0001C96ED91FC91880F991F24813581820F16
:1022D000931FDC01ED91FC91E080F180D801ED913C
:1022E000FC910084F185E02DC8010995E114F10409
:1022F00071F481E0A0960FB6F894DEBF0FBECDBF9B
:10230000DF91CF911F910F91FF90EF900895D80129
:102310001296ED91FC9102811381B8016C5F7F4FA1
:1023200040E250E0CE0101960E94931BF7018081AC
:10233000082E000C990B875F914031F067EF71E038
:10234000CE0101960E945D1B40E250E0B701CE0134
:1023500001960E94831BCE0101960E940407BE01D4
:102360006F5F7F4FC8010E947B0E009711F2DC0166
:102370001296ED91FC9182819381DC01ED91FC91AB
:102380000680F781E02D0995B4CFDC01ED91FC9139
:102390000084F185E02D0995D8011296ED91FC910C
:1023A000828193810E941B0FE0CFFC01E480F580C5
:1023B000D7018D919C910E946806D7015F96EC91A0
:1023C000F0E03196EE0FFF1FEE0DFF1DA081B181F1
:1023D0005996EC915997E11110C058968C915897E5
:1023E000815059968C93C7010E946A08F80186852E
:1023F00018169CF4815086877CCFE1505996EC9357
:102400005997F0E0EE0FFF1FEA0FFB1F0190F081DC
:10241000E02D86A18823E1F2E6CF8785815086876B
:1024200068CFFC01E480F580D7018D919C910E94DA
:102430006806D7015F96EC91F0E03196EE0FFF1F32
:10244000EE0DFF1DA081B18158962C915897215017
:10245000330B59968C91599782171306C4F48F5FEA
:1024600059968C93599782171306A1F4C7010E94BD
:102470006A08F8018685482F082E000C550B278521
:102480002150330B42175307A4F48F5FB4CF5996F2
:102490001C9259975996EC915997F0E0EE0FFF1F57
:1024A000EA0FFB1F0190F081E02D86A1882389F2BD
:1024B000DDCF16861ECF1F920F920FB60F921124FA
:1024C0002F933F938F939F93AF93BF9380911A0362
:1024D00090911B03A0911C03B0911D033091150333
:1024E00023E0230F2D3758F50196A11DB11D209330
:1024F000150380931A0390931B03A0931C03B093BE
:102500001D038091160390911703A0911803B091B9
:1025100019030196A11DB11D809316039093170313
:10252000A0931803B0931903BF91AF919F918F911E
:102530003F912F910F900FBE0F901F90189526E896
:10254000230F0296A11DB11DD2CF1F920F920FB67D
:102550000F9211242F933F934F935F936F937F9329
:102560008F939F93AF93BF93EF93FF9380E293E09A
:102570000E946802FF91EF91BF91AF919F918F915F
:102580007F916F915F914F913F912F910F900FBE6F
:102590000F901F9018951F920F920FB60F92112453
:1025A0002F938F939F93EF93FF93E0913003F091DC
:1025B00031038081E0913603F091370382FD1BC027
:1025C0009081809139038F5F8F7320913A03821736
:1025D00041F0E0913903F0E0E05EFC4F958F80938D
:1025E0003903FF91EF919F918F912F910F900FBE23
:1025F0000F901F9018958081F4CF1F920F920FB605
:102600000F9211242F933F934F935F936F937F9378
:102610008F939F93AF93BF93EF93FF938091B900F4
:10262000887F803609F44AC0F0F5883209F4A7C0E3
:1026300018F5803109F49BC0B8F4882309F4F9C077
:10264000883009F494C0FF91EF91BF91AF919F91B1
:102650008F917F916F915F914F913F912F910F904B
:102660000FBE0F901F901895883109F488C08032F2
:1026700051F78093DA0214C0803409F49DC040F40D
:102680008033B9F38833F9F68093DA0285ECB0C071
:10269000803509F485C0883509F496C0883499F6E8
:1026A0000E943208D0CF883909F48CC038F58837B9
:1026B00029F050F4883611F0803729F683E08093B2
:1026C000DB021092D90257C0883809F47BC08039E8
:1026D00019F0803809F0B7CF8091D902803208F024
:1026E00071C0E091D90281E08E0F8093D902809170
:1026F000BB00F0E0E754FD4F80833DC0803B39F0E4
:10270000E0F4803A09F479C0883A09F09CCF84E07B
:102710008093DB021092B8021092B702E09103039B
:10272000F091040309958091B70281110FC081E0F7
:102730008093B7021092970209C0803C09F4A6CF9B
:10274000883C09F4A3CF883B09F07DCFE091B80223
:1027500081E08E0F8093B802F0E0E956FD4F808152
:102760008093BB009091B8028091B70229C08091FC
:1027700000038093BB0085EC8093BC0064CF9091F4
:10278000FF028091FE02981758F5E091FF0281E068
:102790008E0F8093FF02F0E0E252FD4F8081E9CF7F
:1027A000E091FF0281E08E0F8093FF028091BB00D9
:1027B000F0E0E252FD4F80839091FF028091FE0293
:1027C0009817C8F285E8D8CFE091FF0281E08E0F1C
:1027D0008093FF028091BB00F0E0E252FD4F8083C6
:1027E0008091DD0281115CCF81E08093DC0284EA7C
:1027F0008093BC001092DB0226CF85EC8093BC0056
:102800001092DB028091D902803230F4E091D9023B
:10281000F0E0E754FD4F10826091D90270E0E09142
:102820000103F091020389EB92E009951092D9021D
:102830000ACF1092DA0234CF1F93CF93DF93E0E2F6
:10284000F3E01382128288EE93E0A0E0B0E084838C
:102850009583A683B78320E631E03183208325EC7E
:1028600030E03587248724EC30E03787268720EC5A
:1028700030E0318B208B21EC30E0338B228B22EC4B
:1028800030E0358B248B26EC30E0378B268B118E95
:10289000128E138E148EEDEBF3E01382128284837A
:1028A0009583A683B78322E731E031832083E9EC67
:1028B000F3E0168611E017871082118212821382CC
:1028C00080879187A287B387E9EFF3E013821282B2
:1028D00024E831E0318320832FE3248320E1208723
:1028E00022E02187128638E03387C9EDD3E02883C0
:1028F00023E0298324E02A831B821C821D821C8EF4
:102900001D8F1E861F86188A198A8E8B9F8BA88F13
:10291000B98F80E190E00E94A817FC011686178706
:10292000108211821282138282E390E0A0E0B0E074
:1029300080879187A287B387FF8FEE8FDF91CF913A
:102940001F910895789484B5826084BD84B58160B8
:1029500084BD85B5826085BD85B5816085BD80916A
:102960006E00816080936E001092810080918100E2
:1029700082608093810080918100816080938100DA
:10298000809180008160809380008091B10084609C
:102990008093B1008091B00081608093B0008091FD
:1029A0007A00846080937A0080917A0082608093BC
:1029B0007A0080917A00816080937A0080917A0019
:1029C000806880937A001092C100E0913003F0910A
:1029D000310382E08083E0912C03F0912D0310827B
:1029E000E0912E03F0912F0380E180831092380351
:1029F000E0913403F091350386E08083E091320367
:102A0000F0913303808180618083E0913203F09103
:102A10003303808188608083E0913203F091330337
:102A2000808180688083E0913203F091330380815C
:102A30008F7D808389EF91E00E9404070E94FE074A
:102A400060E082E00E944E0160E083E00E944E015F
:102A500062E084E00E944E0187E995E09093E203F2
:102A60008093E1038FE995E09093E0038093DF0387
:102A70008EE198E09093E4038093E30388E298E08A
:102A80009093E6038093E50388E090E00E94A81706
:102A90008C0139EFC32E33E0D32EDC011596DC9286
:102AA000CE92149784E290E00E94A8177C0188E0FF
:102AB00090E00E94A817EC0181E090E00E94A70539
:102AC000998388836EE871E00E947C1B1B821A82C6
:102AD0001D821C821F821E82F701D183C083D38393
:102AE000C283D8011396FC92EE9212978CE090E08C
:102AF0000E94A817B82EE92EC82FD92FC992D992B3
:102B0000F12C84E090E00E94A817FC01D182C082E1
:102B1000F282138289939993F394F5E0FF12F1CF37
:102B2000D801BC921196EC9280E190E00E94A81727
:102B3000FC01138302831386128680E491E0918363
:102B400080831586148616861786D8011796FC93FF
:102B5000EE9316971496CD91DC9110920803109283
:102B6000070310920603109205030E941E0381EED4
:102B700091E0909304038093030382EE91E090939D
:102B80000203809301031D828985823010F098E052
:102B90009D839A85992329F0813019F48D81846071
:102BA0008D8362E370E080E090E00E94AF016B856E
:102BB000CE010E945D0468EE73E080E090E00E9428
:102BC000AF0160E3CE010E94AD052BE4E22E26E4C6
:102BD000F22EC7010197F1F760E3CE010E94AD0527
:102BE000C7010197F1F760E3CE010E94AD0583E5CF
:102BF00092E00197F1F760E2CE010E94AD056D8190
:102C0000606240E0CE010E94C60584E08E8340E011
:102C10006CE0CE010E94C605CE010E94680682E0EB
:102C20008F8340E066E0CE010E94C60540E062E08E
:102C3000CE010E94C6058BE39FE10197F1F7F801F1
:102C40008481958128E0DC011B962C9360E00E9432
:102C50005D0410931403009313030E94FE07C091B8
:102C60001303D091140364E070E081E090E00E94CF
:102C70003A1B009781F022E730E0FC01318320838A
:102C80002E813F8133832283AC0166E072E08A812A
:102C90009B810E9419108CE090E00E94A8178C0183
:102CA000DC011396DC93CE9312971B961C921E9216
:102CB0001A9780E591E08D939C9380E280930A03BC
:102CC00080930B0380930C0380930D0380930E037A
:102CD00080930F038093100301151105B1F064E098
:102CE00070E081E090E00E943A1B009771F02DE6C1
:102CF00030E0FC013183208313830283AC016CE05C
:102D000072E08A819B810E9419108CE090E00E9401
:102D1000A8178C01DC011396DC93CE9312971B96B7
:102D20001C921E921A9780E591E08D939C9380E20D
:102D300080930A0380930B0380930C0380930D030D
:102D400080930E0380930F038093100301151105E8
:102D5000B1F064E070E081E090E00E943A1BAC01C9
:102D6000892B69F08A819B8128E630E0FA01318362
:102D700020831383028367E172E00E94191066E0EA
:102D800072E08A819B810E947B0EEC0162E272E01C
:102D900080E293E00E94F60786E092E00E9404073A
:102DA000209749F0EA81FB81309729F08281938155
:102DB000009709F071C088E292E00E94040701E0E8
:102DC00080E0E82E80E0F82E11E092E0D92E80918C
:102DD000D9030E94F7008093DC039091DD038917EB
:102DE000B1F0811114C08091DA030E94F7002091A4
:102DF000DC032817190609F457C081E090E00E940F
:102E0000940062E372E080E293E00E94F607809112
:102E1000DC038093DD038091DB030E94F700D1E0A7
:102E2000892B09F4D0E08D2F0E94260490911C017B
:102E3000911141C0C0911203CC2311F0C82FC027BB
:102E4000809312038D2F0E94260490911B019111F3
:102E500036C0209111032223B1F180931103809198
:102E6000DE03813009F44BC080F1823009F463C085
:102E700064E070E080911303909114030E947D053B
:102E8000E114F10409F4A3CF0E945402882309F449
:102E90009ECF0E9400009BCFDC01ED91FC9106804B
:102EA000F781E02D09958BCF90E080E00E9494009F
:102EB00068E372E0A8CF10921C01C0E0C1CF10926D
:102EC0001B0190E0CACF982FC8CFCC2389F2109372
:102ED000DE032FB7F89480911A0390911B03A09101
:102EE0001C03B0911D032FBF8093E7039093E80369
:102EF000A093E903B093EA031093F603B9CF9923A3
:102F000071F01092DE031092F60382E090E00E94CE
:102F100094006DE372E080E293E00E94F60787EE92
:102F200093E00E94E303882309F4A2CFD092DE034A
:102F30001092F6039DCF1092DE0383E090E00E9492
:102F4000940062E472E080E293E00E94F60790CF82
:102F50000F931F93CF93DF938230910510F482E09B
:102F600090E0E0910704F091080430E020E0B0E048
:102F7000A0E0309799F42115310509F44AC0281BC7
:102F8000390B24303105D8F58A819B816115710593
:102F900089F1FB0193838283FE0111C0408151813D
:102FA0000281138148175907E0F04817590799F42F
:102FB000109761F012960C93129713961C93329609
:102FC000CF01DF91CF911F910F91089500930704D6
:102FD00010930804F4CF2115310551F0421753071F
:102FE00038F0A901DB019A01BD01DF01F801C1CF71
:102FF000EF01F9CF9093080480930704CDCFFE0131
:10300000E20FF31F81939193225031093983288372
:10301000D7CF2091050430910604232B41F4209151
:103020002001309121013093060420930504209162
:103030001E0130911F012115310541F42DB73EB716
:103040004091220150912301241B350BE09105048E
:10305000F0910604E217F307A0F42E1B3F0B28178C
:10306000390778F0AC014E5F5F4F2417350748F001
:103070004E0F5F1F50930604409305048193919374
:103080009FCFF0E0E0E09CCFCF93DF930097E9F093
:10309000FC01329713821282A0910704B0910804B8
:1030A000ED0130E020E01097A1F420813181820F02
:1030B000931F20910504309106042817390709F061
:1030C00061C0F0930604E0930504DF91CF91089569
:1030D000EA01CE17DF07E8F54A815B819E014115C1
:1030E0005105B1F7E901FB83EA8349915991C40F76
:1030F000D51FEC17FD0761F4808191810296840F42
:10310000951FE90199838883828193819B838A83B8
:10311000F0E0E0E012968D919C9113970097B9F53D
:103120002D913C911197CD010296820F931F209112
:103130000504309106042817390739F6309751F500
:103140001092080410920704B0930604A09305049B
:10315000BCCFD383C28340815181840F951FC81790
:10316000D90761F44E5F5F4F88819981480F591FDD
:10317000518340838A819B8193838283211531050A
:1031800009F0B0CFF0930804E09307049ECFFD014F
:10319000DC01C0CF13821282D7CFFC010590002042
:1031A000E9F7809590958E0F9F1F08955058BB2783
:1031B000AA270E94EE180C94611A0E94531A38F044
:1031C0000E945A1A20F039F49F3F19F426F40C9407
:1031D000501A0EF4E095E7FB0C944A1AE92F0E946E
:1031E000721A58F3BA17620773078407950720F01D
:1031F00079F4A6F50C94941A0EF4E0950B2EBA2FE0
:10320000A02D0B01B90190010C01CA01A0011124EC
:10321000FF27591B99F0593F50F4503E68F11A1698
:10322000F040A22F232F342F4427585FF3CF469529
:1032300037952795A795F0405395C9F77EF41F164B
:10324000BA0B620B730B840BBAF09150A1F0FF0F15
:10325000BB1F661F771F881FC2F70EC0BA0F621F01
:10326000731F841F48F4879577956795B795F795F1
:103270009E3F08F0B0CF9395880F08F09927EE0F86
:103280009795879508950E94261A08F481E008957D
:103290000E945C190C94611A0E945A1A58F00E94FC
:1032A000531A40F029F45F3F29F00C944A1A511147
:1032B0000C94951A0C94501A0E94721A68F3992370
:1032C000B1F3552391F3951B550BBB27AA27621722
:1032D0007307840738F09F5F5F4F220F331F441F2F
:1032E000AA1FA9F335D00E2E3AF0E0E832D0915063
:1032F0005040E695001CCAF72BD0FE2F29D0660F50
:10330000771F881FBB1F261737074807AB07B0E892
:1033100009F0BB0B802DBF01FF2793585F4F3AF098
:103320009E3F510578F00C944A1A0C94951A5F3F11
:10333000E4F3983ED4F3869577956795B795F7951E
:103340009F5FC9F7880F911D9695879597F9089506
:10335000E1E0660F771F881FBB1F621773078407A2
:10336000BA0720F0621B730B840BBA0BEE1F88F7B1
:10337000E09508950E947A1A88F09F5798F0B92F27
:103380009927B751B0F0E1F0660F771F881F991F9A
:103390001AF0BA95C9F714C0B13091F00E94941A8E
:1033A000B1E008950C94941A672F782F8827B85F9E
:1033B00039F0B93FCCF3869577956795B395D9F7F2
:1033C0003EF490958095709561957F4F8F4F9F4FFC
:1033D0000895E89409C097FB3EF490958095709508
:1033E00061957F4F8F4F9F4F9923A9F0F92F96E951
:1033F000BB279395F695879577956795B795F111C6
:10340000F8CFFAF4BB0F11F460FF1BC06F5F7F4F62
:103410008F4F9F4F16C0882311F096E911C0772374
:1034200021F09EE8872F762F05C0662371F096E87D
:10343000862F70E060E02AF09A95660F771F881F4C
:10344000DAF7880F9695879597F90895990F0008F0
:10345000550FAA0BE0E8FEEF16161706E807F90766
:10346000C0F012161306E407F50798F0621B730B01
:10347000840B950B39F40A2661F0232B242B252B82
:1034800021F408950A2609F4A140A6958FEF811D25
:10349000811D089597F99F6780E870E060E00895C6
:1034A0009FEF80EC089500240A941616170618065C
:1034B0000906089500240A94121613061406050638
:1034C0000895092E0394000C11F4882352F0BB0FC9
:1034D00040F4BF2B11F460FF04C06F5F7F4F8F4F2C
:1034E0009F4F089557FD9058440F551F59F05F3F67
:1034F00071F04795880F97FB991F61F09F3F79F016
:1035000087950895121613061406551FF2CF469597
:10351000F1DF08C0161617061806991FF1CF869519
:103520007105610508940895E894BB2766277727FD
:10353000CB0197F908950E94261A08F48FEF089599
:103540000E94B31A0C94611A0E94531A38F00E9418
:103550005A1A20F0952311F00C944A1A0C94501A20
:1035600011240C94951A0E94721A70F3959FC1F35E
:10357000950F50E0551F629FF001729FBB27F00D21
:10358000B11D639FAA27F00DB11DAA1F649F662776
:10359000B00DA11D661F829F2227B00DA11D621FC5
:1035A000739FB00DA11D621F839FA00D611D221F7F
:1035B000749F3327A00D611D231F849F600D211D63
:1035C000822F762F6A2F11249F5750409AF0F1F0E6
:1035D00088234AF0EE0FFF1FBB1F661F771F881F4F
:1035E00091505040A9F79E3F510580F00C944A1A23
:1035F0000C94951A5F3FE4F3983ED4F38695779543
:103600006795B795F795E7959F5FC1F7FE2B880FF4
:10361000911D9695879597F908950E94261A880B13
:10362000990B0895A1E21A2EAA1BBB1BFD010DC028
:10363000AA1FBB1FEE1FFF1FA217B307E407F50762
:1036400020F0A21BB30BE40BF50B661F771F881F3E
:10365000991F1A9469F760957095809590959B01D4
:10366000AC01BD01CF010895EE0FFF1F0590F4914D
:10367000E02D09940F931F93CF93DF93869F8001D2
:10368000879F100D969F100D1124C8010E94A81746
:10369000EC01009729F0A80170E060E00E94561B41
:1036A000CE01DF91CF911F910F910895DC0101C0F0
:1036B0006D9341505040E0F70895FB01DC010D90FF
:1036C0000020E9F7119701900D920020E1F708958D
:1036D000FC018191861721F08823D9F79927089555
:1036E0003197CF010895FB01DC018D910190801984
:1036F0000110D9F3990B0895FB01DC0101900D92A3
:103700000020E1F70895FB01DC010D900020E9F7AE
:1037100011974150504028F0019000200D92C9F7B8
:1037200008951C920895FB01DC014150504048F07F
:1037300001900D920020C9F701C01D9241505040E8
:08374000E0F70895F894FFCFB3
:10374800202000000E0E0E0000000004021F0204DC
:1037580000000004081F0804000001010101000026
:103768000904800000004000140054001F151F1FAA
:103778000E0A1B00000103161C08000000000000D0
:10378800320E390E3211A40C140E5E050000000032
:10379800030E0A0E7E0FCE0AD90D5E05000000004A
:1037A8008A02EA011702D702480226023A020000FA
:1037B8000000B403870345055D0380036D035E03C2
:1037C80000000000DD05EA01450544050D0A006E0C
:1037D800616E00696E66006F7666004672656520E8
:1037E8004D656D6F72793A200020627974657300B7
:1037F8005745454B004D00540057004600530041C3
:10380800004E6F646520616C726561647920696E31
:1038180020757365004E6F6465206E6F7420666F47
:10382800756E6400416464206C696E650062616352
:103838006B2055524C3A002F0023232320494E4930
:103848005420232323002F686F6D65002F686F6D48
:10385800652F7765656B002F686F6D652F74696DCF
:10386800650075726C3A20006E6F6465206E756C29
:103878006C005B4343575D005B43575D005B5350EF
:083888005D005B4C505D000087
:00000001FF
